{
  "_format": "hh-sol-artifact-1",
  "contractName": "SiweHelloWorld",
  "sourceName": "contracts/SiweHelloWorld.sol",
  "abi": [
    {
      "inputs": [
        {
          "internalType": "string",
          "name": "domain",
          "type": "string"
        }
      ],
      "stateMutability": "nonpayable",
      "type": "constructor"
    },
    {
      "inputs": [],
      "name": "A13e_RevokedAuthToken",
      "type": "error"
    },
    {
      "inputs": [
        {
          "internalType": "address",
          "name": "owner",
          "type": "address"
        }
      ],
      "name": "OwnableInvalidOwner",
      "type": "error"
    },
    {
      "inputs": [
        {
          "internalType": "address",
          "name": "account",
          "type": "address"
        }
      ],
      "name": "OwnableUnauthorizedAccount",
      "type": "error"
    },
    {
      "inputs": [],
      "name": "SiweAuth_AddressMismatch",
      "type": "error"
    },
    {
      "inputs": [],
      "name": "SiweAuth_ChainIdMismatch",
      "type": "error"
    },
    {
      "inputs": [],
      "name": "SiweAuth_DomainMismatch",
      "type": "error"
    },
    {
      "inputs": [],
      "name": "SiweAuth_Expired",
      "type": "error"
    },
    {
      "inputs": [],
      "name": "SiweAuth_NotBeforeInFuture",
      "type": "error"
    },
    {
      "inputs": [],
      "name": "SiweParser_InvalidAddressLength",
      "type": "error"
    },
    {
      "inputs": [],
      "name": "SiweParser_InvalidNonce",
      "type": "error"
    },
    {
      "anonymous": false,
      "inputs": [
        {
          "indexed": true,
          "internalType": "address",
          "name": "caller",
          "type": "address"
        },
        {
          "indexed": false,
          "internalType": "string",
          "name": "message",
          "type": "string"
        }
      ],
      "name": "Greeting",
      "type": "event"
    },
    {
      "anonymous": false,
      "inputs": [
        {
          "indexed": true,
          "internalType": "address",
          "name": "owner",
          "type": "address"
        }
      ],
      "name": "NameInitialized",
      "type": "event"
    },
    {
      "anonymous": false,
      "inputs": [
        {
          "indexed": true,
          "internalType": "address",
          "name": "previousOwner",
          "type": "address"
        },
        {
          "indexed": true,
          "internalType": "address",
          "name": "newOwner",
          "type": "address"
        }
      ],
      "name": "OwnershipTransferred",
      "type": "event"
    },
    {
      "inputs": [],
      "name": "domain",
      "outputs": [
        {
          "internalType": "string",
          "name": "",
          "type": "string"
        }
      ],
      "stateMutability": "view",
      "type": "function"
    },
    {
      "inputs": [],
      "name": "getConfidentialityInfo",
      "outputs": [
        {
          "internalType": "string",
          "name": "",
          "type": "string"
        }
      ],
      "stateMutability": "view",
      "type": "function"
    },
    {
      "inputs": [
        {
          "internalType": "bytes",
          "name": "token",
          "type": "bytes"
        }
      ],
      "name": "getOwnerName",
      "outputs": [
        {
          "internalType": "string",
          "name": "",
          "type": "string"
        }
      ],
      "stateMutability": "view",
      "type": "function"
    },
    {
      "inputs": [
        {
          "internalType": "bytes",
          "name": "token",
          "type": "bytes"
        }
      ],
      "name": "greet",
      "outputs": [
        {
          "internalType": "string",
          "name": "",
          "type": "string"
        }
      ],
      "stateMutability": "view",
      "type": "function"
    },
    {
      "inputs": [
        {
          "internalType": "string",
          "name": "name",
          "type": "string"
        }
      ],
      "name": "initializeName",
      "outputs": [],
      "stateMutability": "nonpayable",
      "type": "function"
    },
    {
      "inputs": [],
      "name": "isNameInitialized",
      "outputs": [
        {
          "internalType": "bool",
          "name": "",
          "type": "bool"
        }
      ],
      "stateMutability": "view",
      "type": "function"
    },
    {
      "inputs": [
        {
          "internalType": "string",
          "name": "siweMsg",
          "type": "string"
        },
        {
          "components": [
            {
              "internalType": "bytes32",
              "name": "r",
              "type": "bytes32"
            },
            {
              "internalType": "bytes32",
              "name": "s",
              "type": "bytes32"
            },
            {
              "internalType": "uint256",
              "name": "v",
              "type": "uint256"
            }
          ],
          "internalType": "struct SignatureRSV",
          "name": "sig",
          "type": "tuple"
        }
      ],
      "name": "login",
      "outputs": [
        {
          "internalType": "bytes",
          "name": "",
          "type": "bytes"
        }
      ],
      "stateMutability": "view",
      "type": "function"
    },
    {
      "inputs": [],
      "name": "owner",
      "outputs": [
        {
          "internalType": "address",
          "name": "",
          "type": "address"
        }
      ],
      "stateMutability": "view",
      "type": "function"
    },
    {
      "inputs": [],
      "name": "renounceOwnership",
      "outputs": [],
      "stateMutability": "nonpayable",
      "type": "function"
    },
    {
      "inputs": [
        {
          "internalType": "address",
          "name": "newOwner",
          "type": "address"
        }
      ],
      "name": "transferOwnership",
      "outputs": [],
      "stateMutability": "nonpayable",
      "type": "function"
    }
  ],
  "bytecode": "0x608060405234801561001057600080fd5b50604051612b2e380380612b2e83398101604081905261002f91610220565b33816100516020604051806020016040528060008152506100aa60201b60201c565b61005a906102d2565b6002556001610069828261037c565b50506001600160a01b03811661009a57604051631e4fbdf760e01b8152600060048201526024015b60405180910390fd5b6100a381610194565b5050610490565b60606000807301000000000000000000000000000000000000016001600160a01b031685856040516020016100e092919061043a565b60408051601f19818403018152908290526100fa91610474565b600060405180830381855afa9150503d8060008114610135576040519150601f19603f3d011682016040523d82523d6000602084013e61013a565b606091505b50915091508161018c5760405162461bcd60e51b815260206004820152601360248201527f72616e646f6d42797465733a206661696c6564000000000000000000000000006044820152606401610091565b949350505050565b600380546001600160a01b038381166001600160a01b0319831681179093556040519116919082907f8be0079c531659141344cd1fd0a4f28419497f9722a3daafe3b4186f6b6457e090600090a35050565b634e487b7160e01b600052604160045260246000fd5b60005b838110156102175781810151838201526020016101ff565b50506000910152565b60006020828403121561023257600080fd5b81516001600160401b0381111561024857600080fd5b8201601f8101841361025957600080fd5b80516001600160401b03811115610272576102726101e6565b604051601f8201601f19908116603f011681016001600160401b03811182821017156102a0576102a06101e6565b6040528181528282016020018610156102b857600080fd5b6102c98260208301602086016101fc565b95945050505050565b805160208083015191908110156102f3576000198160200360031b1b821691505b50919050565b600181811c9082168061030d57607f821691505b6020821081036102f357634e487b7160e01b600052602260045260246000fd5b601f82111561037757806000526020600020601f840160051c810160208510156103545750805b601f840160051c820191505b818110156103745760008155600101610360565b50505b505050565b81516001600160401b03811115610395576103956101e6565b6103a9816103a384546102f9565b8461032d565b6020601f8211600181146103dd57600083156103c55750848201515b600019600385901b1c1916600184901b178455610374565b600084815260208120601f198516915b8281101561040d57878501518255602094850194600190920191016103ed565b508482101561042b5786840151600019600387901b60f8161c191681555b50505050600190811b01905550565b828152604060208201526000825180604084015261045f8160608501602087016101fc565b601f01601f1916919091016060019392505050565b600082516104868184602087016101fc565b9190910192915050565b61268f8061049f6000396000f3fe608060405234801561001057600080fd5b506004361061009e5760003560e01c806377d28b8e1161006657806377d28b8e146101075780637f476b6f1461011a5780638da5cb5b1461012d578063c2fb26a614610148578063f2fde38b1461015057600080fd5b806310745c4b146100a357806329638223146100c15780632b0f5d80146100d45780633384f8e4146100ea578063715018a6146100ff575b600080fd5b6100ab610163565b6040516100b89190611d3c565b60405180910390f35b6100ab6100cf366004611e22565b6101ca565b60055460ff1660405190151581526020016100b8565b6100fd6100f8366004611e22565b6102a9565b005b6100fd610394565b6100ab610115366004611e22565b6103a8565b6100ab610128366004611e72565b6104ba565b6003546040516001600160a01b0390911681526020016100b8565b6100ab6107ba565b6100fd61015e366004611f16565b61084c565b60055460609060ff161561018f576040518060600160405280603e815260200161261c603e9139905090565b6040518060400160405280602081526020017f4e6f206e616d6520686173206265656e20696e697469616c697a656420796574815250905090565b60608133801580156101dd575060008251115b156101ee576101eb8261088a565b90505b6003546001600160a01b0382811691161461022c5760405163118cdaa760e01b81526001600160a01b03821660048201526024015b60405180910390fd5b60055460ff1661027e5760405162461bcd60e51b815260206004820152601860248201527f4e616d65206e6f7420696e697469616c697a65642079657400000000000000006044820152606401610223565b60046040516020016102909190611fd9565b60405160208183030381529060405292505b5050919050565b6102b16108f1565b60055460ff16156103045760405162461bcd60e51b815260206004820152601860248201527f4e616d6520616c726561647920696e697469616c697a656400000000000000006044820152606401610223565b600081511161034c5760405162461bcd60e51b81526020600482015260146024820152734e616d652063616e6e6f7420626520656d70747960601b6044820152606401610223565b60046103588282612043565b506005805460ff1916600117905560405133907f42557ba7d9aed0537f1ae4e0553a11ecf8800e3c162de7a561c8c1b2d5c816d090600090a250565b61039c6108f1565b6103a6600061091e565b565b60608133801580156103bb575060008251115b156103cc576103c98261088a565b90505b6003546001600160a01b038281169116146104055760405163118cdaa760e01b81526001600160a01b0382166004820152602401610223565b60055460ff16610426576040518060200160405280600081525092506102a2565b6004805461043390611f33565b80601f016020809104026020016040519081016040528092919081815260200182805461045f90611f33565b80156104ac5780601f10610481576101008083540402835291602001916104ac565b820191906000526020600020905b81548152906001019060200180831161048f57829003601f168201915b505050505092505050919050565b60606104c4611c2b565b60006104cf85610970565b86866040516020016104e393929190612101565b60408051601f19818403018152828252805160208083019190912060008086528583018086529190915260ff89850135169385019390935287356060850152870135608084015292509060019060a0016020604051602081039080840390855afa158015610555573d6000803e3d6000fd5b5050604051601f1901516001600160a01b038116602086015291506000905061057e8888610a02565b9050468160a00151146105a45760405163362c833760e01b815260040160405180910390fd5b60016040516105b39190612155565b6040518091039020816000015180519060200120146105e55760405163283d62bd60e01b815260040160405180910390fd5b8051845260208101516001600160a01b03838116911614610619576040516305cc02e160e01b815260040160405180910390fd5b610120810151511580159061063b5750610637816101200151610e57565b4211155b156106595760405163299d02f160e01b815260040160405180910390fd5b6101008101515115610680576000610675826101000151610e57565b604086015250610693565b61068d6201518042612177565b60408501525b836040015142106106b757604051630b17115560e41b815260040160405180910390fd5b60408101516060850152610160810151516001600160401b038111156106df576106df611d4f565b60405190808252806020026020018201604052801561071257816020015b60608152602001906001900390816106fd5790505b50608085015260005b816101600151518110156107715781610160015181815181106107405761074061218a565b60200260200101518560800151828151811061075e5761075e61218a565b602090810291909101015260010161071b565b5060006107ad6002546000801b8760405160200161078f91906121a0565b60408051601f19818403018152602083019091526000825290610ec6565b9998505050505050505050565b6060600180546107c990611f33565b80601f01602080910402602001604051908101604052809291908181526020018280546107f590611f33565b80156108425780601f1061081757610100808354040283529160200191610842565b820191906000526020600020905b81548152906001019060200180831161082557829003601f168201915b5050505050905090565b6108546108f1565b6001600160a01b03811661087e57604051631e4fbdf760e01b815260006004820152602401610223565b6108878161091e565b50565b80516020808301919091206000908152908190526040812054829060ff16156108c6576040516313d4cf0960e31b815260040160405180910390fd5b82516000036108d857600091506108eb565b60006108e384610f9b565b602001519250505b50919050565b6003546001600160a01b031633146103a65760405163118cdaa760e01b8152336004820152602401610223565b600380546001600160a01b038381166001600160a01b0319831681179093556040519116919082907f8be0079c531659141344cd1fd0a4f28419497f9722a3daafe3b4186f6b6457e090600090a35050565b6060600061097d8361104c565b60010190506000816001600160401b0381111561099c5761099c611d4f565b6040519080825280601f01601f1916602001820160405280156109c6576020820181803683370190505b5090508181016020015b600019016f181899199a1a9b1b9c1cb0b131b232b360811b600a86061a8153600a85049450846109d057509392505050565b610a0a611c63565b610a12611c63565b60005b83811015610a9957848482818110610a2f57610a2f61218a565b909101356001600160f81b031916600160fd1b039050610a9157610a8a85858080601f016020809104026020016040519081016040528093929190818152602001838380828437600092018290525092508591506111249050565b8252610a99565b600101610a15565b610aa4603282612177565b9050610b0b610b0686868080601f016020809104026020016040519081016040528093929190818152602001838380828437600092019190915250610af0925060029150869050612177565b935083610afe602882612177565b945084611124565b6111fa565b6001600160a01b03166020830152610b24600282612177565b90508381108015610b5e5750848482818110610b4257610b4261218a565b9050013560f81c60f81b6001600160f81b031916600560f91b14155b15610bfd57805b84811015610bfb57858582818110610b7f57610b7f61218a565b909101356001600160f81b031916600560f91b039050610bf357610bdc86868080601f0160208091040260200160405190810160405280939291908181526020018383808284376000920191909152508692508591506111249050565b6040840152610bec816001612177565b9150610bfb565b600101610b65565b505b80610c0781612278565b915050610c3185856040518060400160405280600381526020016255524960e81b8152508461132d565b836060018193508290525050610c688585604051806040016040528060078152602001662b32b939b4b7b760c91b8152508461132d565b8360800181935082905250506060610ca286866040518060400160405280600881526020016710da185a5b88125160c21b8152508561132d565b92509050610caf8161152d565b60a08401526040805180820190915260058152644e6f6e636560d81b6020820152610cde90879087908561132d565b60c08501829052905190925060081115610d0b57604051632d2f00c360e21b815260040160405180910390fd5b610d38868660405180604001604052806009815260200168125cdcdd595908105d60ba1b8152508561132d565b8460e0018194508290525050610d7786866040518060400160405280600f81526020016e45787069726174696f6e2054696d6560881b8152508561132d565b84610100018194508290525050610db286866040518060400160405280600a8152602001694e6f74204265666f726560b01b8152508561132d565b84610120018194508290525050610ded86866040518060400160405280600a81526020016914995c5d595cdd08125160b21b8152508561132d565b846101400181945082905250506000610e298787604051806040016040528060098152602001685265736f757263657360b81b8152508661132d565b915050828114610e4a57610e3e878783611587565b61016086019190915292505b5091925050505b92915050565b6000610e51610e71610e6c8460006004611124565b61152d565b610e81610e6c8560056007611124565b610e91610e6c866008600a611124565b610ea1610e6c87600b600d611124565b610eb1610e6c88600e6010611124565b610ec1610e6c8960116013611124565b611877565b60606000806003600160981b016001600160a01b031687878787604051602001610ef39493929190612291565b60408051601f1981840301815290829052610f0d916122cd565b600060405180830381855afa9150503d8060008114610f48576040519150601f19603f3d011682016040523d82523d6000602084013e610f4d565b606091505b509150915081610f915760405162461bcd60e51b815260206004820152600f60248201526e195b98dc9e5c1d0e8819985a5b1959608a1b6044820152606401610223565b9695505050505050565b610fa3611c2b565b6000610fc56002546000801b8560405180602001604052806000815250611a1d565b9050600081806020019051810190610fdd91906123da565b90506001604051610fee9190612155565b6040518091039020816000015180519060200120146110205760405163283d62bd60e01b815260040160405180910390fd5b428160400151101561104557604051630b17115560e41b815260040160405180910390fd5b9392505050565b60008072184f03e93ff9f4daa797ed6e38ed64bf6a1f0160401b831061108b5772184f03e93ff9f4daa797ed6e38ed64bf6a1f0160401b830492506040015b6d04ee2d6d415b85acef810000000083106110b7576d04ee2d6d415b85acef8100000000830492506020015b662386f26fc1000083106110d557662386f26fc10000830492506010015b6305f5e10083106110ed576305f5e100830492506008015b612710831061110157612710830492506004015b60648310611113576064830492506002015b600a8310610e515760010192915050565b6060600061113284846124ba565b6001600160401b0381111561114957611149611d4f565b6040519080825280601f01601f191660200182016040528015611173576020820181803683370190505b509050835b83811080156111875750855181105b156111f15785818151811061119e5761119e61218a565b01602001516001600160f81b031916826111b887846124ba565b815181106111c8576111c861218a565b60200101906001600160f81b031916908160001a905350806111e981612278565b915050611178565b50949350505050565b6000815160281461121e5760405163acf8696960e01b815260040160405180910390fd5b60006002835161122e91906124cd565b6001600160401b0381111561124557611245611d4f565b6040519080825280601f01601f19166020018201604052801561126f576020820181803683370190505b50905060005b6002845161128391906124cd565b811015611319576112c1846112998360026124e1565b6112a4906001612177565b815181106112b4576112b461218a565b016020015160f81c611ae8565b6112d0856112a48460026124e1565b6112db9060106124f8565b6112e59190612514565b60f81b8282815181106112fa576112fa61218a565b60200101906001600160f81b031916908160001a905350600101611275565b506113238161252d565b60601c9392505050565b60606000825b858110156114485786868281811061134d5761134d61218a565b909101356001600160f81b031916601d60f91b0390506114365784805190602001206113b288888080601f0160208091040260200160405190810160405280939291908181526020018383808284376000920191909152508992508691506111249050565b80519060200120146113d7575050604080516020810190915260008152905081611524565b806113e181612278565b915050858110801561141b57508686828181106114005761140061218a565b9050013560f81c60f81b6001600160f81b031916600160fd1b145b1561142e578061142a81612278565b9150505b809350611448565b8061144081612278565b915050611333565b858110156114dc578686828181106114625761146261218a565b909101356001600160f81b031916600560f91b0390506114d4576114bf87878080601f0160208091040260200160405190810160405280939291908181526020018383808284376000920191909152508892508591506111249050565b6114ca826001612177565b9250925050611524565b600101611448565b61151f87878080601f0160208091040260200160405190810160405280939291908181526020018383808284376000920191909152508892508591506111249050565b925090505b94509492505050565b600080805b835181101561158057603084828151811061154f5761154f61218a565b0160200151611561919060f81c6124ba565b61156c83600a6124e1565b6115769190612177565b9150600101611532565b5092915050565b6060600082815b6115996001876124ba565b821015611694578686838181106115b2576115b261218a565b9050013560f81c60f81b6001600160f81b031916602d60f81b14801561160a575086866115e0846001612177565b8181106115ef576115ef61218a565b9050013560f81c60f81b6001600160f81b031916600160fd1b145b1561162e5761161a600283612177565b91508061162681612278565b915050611633565b611694565b858210801561166b575086868381811061164f5761164f61218a565b9050013560f81c60f81b6001600160f81b031916600a60f81b14155b15611682578161167a81612278565b925050611633565b8161168c81612278565b92505061158e565b6000816001600160401b038111156116ae576116ae611d4f565b6040519080825280602002602001820160405280156116e157816020015b60608152602001906001900390816116cc5790505b50905085925060005b6116f56001896124ba565b841080156117035750828114155b156118695788888581811061171a5761171a61218a565b9050013560f81c60f81b6001600160f81b031916602d60f81b14801561177257508888611748866001612177565b8181106117575761175761218a565b9050013560f81c60f81b6001600160f81b031916600160fd1b145b1561178557611782846002612177565b96505b87841080156117bd57508888858181106117a1576117a161218a565b9050013560f81c60f81b6001600160f81b031916600a60f81b14155b156117d457836117cc81612278565b945050611785565b61181789898080601f0160208091040260200160405190810160405280939291908181526020018383808284376000920191909152508b92508891506111249050565b8282815181106118295761182961218a565b6020026020010181905250808061183f90612278565b915050878403611857578361185381612571565b9450505b8361186181612278565b9450506116ea565b509791965090945050505050565b60006107b25b8761ffff168161ffff1610156118c95761189681611bcc565b156118b0576118a96301e2850083612177565b91506118c1565b6118be6301e1338083612177565b91505b60010161187d565b6118d1611ccd565b601f81526118de89611bcc565b156118ef57601d60208201526118f7565b601c60208201525b601f60408201819052601e606083018190526080830182905260a0830181905260c0830182905260e0830182905261010083018190526101208301829052610140830152610160820152600191505b8760ff168261ffff1610156119a45780611961600184612588565b61ffff16600c81106119755761197561218a565b602002015161198790620151806125a2565b6119979063ffffffff1684612177565b9250600190910190611946565b6119af6001886125c1565b6119bf9060ff16620151806125a2565b6119cf9063ffffffff1684612177565b92506119e060ff8716610e106125a2565b6119f09063ffffffff1684612177565b9250611a0060ff8616603c6125da565b611a0e9061ffff1684612177565b92506107ad60ff851684612177565b60606000806004600160981b016001600160a01b031687878787604051602001611a4a9493929190612291565b60408051601f1981840301815290829052611a64916122cd565b600060405180830381855afa9150503d8060008114611a9f576040519150601f19603f3d011682016040523d82523d6000602084013e611aa4565b606091505b509150915081610f915760405162461bcd60e51b815260206004820152600f60248201526e191958dc9e5c1d0e8819985a5b1959608a1b6044820152606401610223565b6000600360fc1b60f883901b6001600160f81b03191610801590611b1e5750603960f81b60f883901b6001600160f81b03191611155b15611b2e57610e516030836125c1565b606160f81b60f883901b6001600160f81b03191610801590611b625750603360f91b60f883901b6001600160f81b03191611155b15611b7e576061611b7483600a612514565b610e5191906125c1565b604160f81b60f883901b6001600160f81b03191610801590611bb25750602360f91b60f883901b6001600160f81b03191611155b15611bc4576041611b7483600a612514565b506000919050565b6000611bd96004836125f7565b61ffff1615611bea57506000919050565b611bf56064836125f7565b61ffff1615611c0657506001919050565b611c12610190836125f7565b61ffff1615611c2357506000919050565b506001919050565b6040518060a001604052806060815260200160006001600160a01b031681526020016000815260200160608152602001606081525090565b6040518061018001604052806060815260200160006001600160a01b03168152602001606081526020016060815260200160608152602001600081526020016060815260200160608152602001606081526020016060815260200160608152602001606081525090565b604051806101800160405280600c906020820280368337509192915050565b60005b83811015611d07578181015183820152602001611cef565b50506000910152565b60008151808452611d28816020860160208601611cec565b601f01601f19169290920160200192915050565b6020815260006110456020830184611d10565b634e487b7160e01b600052604160045260246000fd5b60405160a081016001600160401b0381118282101715611d8757611d87611d4f565b60405290565b604051601f8201601f191681016001600160401b0381118282101715611db557611db5611d4f565b604052919050565b60006001600160401b03821115611dd657611dd6611d4f565b50601f01601f191660200190565b6000611df7611df284611dbd565b611d8d565b9050828152838383011115611e0b57600080fd5b828260208301376000602084830101529392505050565b600060208284031215611e3457600080fd5b81356001600160401b03811115611e4a57600080fd5b8201601f81018413611e5b57600080fd5b611e6a84823560208401611de4565b949350505050565b60008060008385036080811215611e8857600080fd5b84356001600160401b03811115611e9e57600080fd5b8501601f81018713611eaf57600080fd5b80356001600160401b03811115611ec557600080fd5b876020828401011115611ed757600080fd5b602091909101945092506060601f1982011215611ef357600080fd5b506020840190509250925092565b6001600160a01b038116811461088757600080fd5b600060208284031215611f2857600080fd5b813561104581611f01565b600181811c90821680611f4757607f821691505b6020821081036108eb57634e487b7160e01b600052602260045260246000fd5b60008154611f7481611f33565b600182168015611f8b5760018114611fa057611fd0565b60ff1983168652811515820286019350611fd0565b84600052602060002060005b83811015611fc857815488820152600190910190602001611fac565b505081860193505b50505092915050565b6502432b63637960d51b815260006110456006830184611f67565b601f82111561203e57806000526020600020601f840160051c8101602085101561201b5750805b601f840160051c820191505b8181101561203b5760008155600101612027565b50505b505050565b81516001600160401b0381111561205c5761205c611d4f565b6120708161206a8454611f33565b84611ff4565b6020601f8211600181146120a4576000831561208c5750848201515b600019600385901b1c1916600184901b17845561203b565b600084815260208120601f198516915b828110156120d457878501518255602094850194600190920191016120b4565b50848210156120f25786840151600019600387901b60f8161c191681555b50505050600190811b01905550565b7f19457468657265756d205369676e6564204d6573736167653a0a00000000000081526000845161213981601a850160208901611cec565b82018385601a83013760009301601a0192835250909392505050565b60006110458284611f67565b634e487b7160e01b600052601160045260246000fd5b80820180821115610e5157610e51612161565b634e487b7160e01b600052603260045260246000fd5b602081526000825160a060208401526121bc60c0840182611d10565b905060018060a01b036020850151166040840152604084015160608401526060840151601f198483030160808501526121f58282611d10565b6080860151858203601f190160a08701528051808352919350602090810192508084019190600582901b85010160005b8281101561225657601f19868303018452612241828651611d10565b60209586019594909401939150600101612225565b50979650505050505050565b634e487b7160e01b600052601260045260246000fd5b60006001820161228a5761228a612161565b5060010190565b8481528360208201526080604082015260006122b06080830185611d10565b82810360608401526122c28185611d10565b979650505050505050565b600082516122df818460208701611cec565b9190910192915050565b600082601f8301126122fa57600080fd5b8151612308611df282611dbd565b81815284602083860101111561231d57600080fd5b611e6a826020830160208701611cec565b805161233981611f01565b919050565b600082601f83011261234f57600080fd5b81516001600160401b0381111561236857612368611d4f565b8060051b61237860208201611d8d565b9182526020818501810192908101908684111561239457600080fd5b6020860192505b83831015610f915782516001600160401b038111156123b957600080fd5b6123c8886020838a01016122e9565b8352506020928301929091019061239b565b6000602082840312156123ec57600080fd5b81516001600160401b0381111561240257600080fd5b820160a0818503121561241457600080fd5b61241c611d65565b81516001600160401b0381111561243257600080fd5b61243e868285016122e9565b82525061244d6020830161232e565b60208201526040828101519082015260608201516001600160401b0381111561247557600080fd5b612481868285016122e9565b60608301525060808201516001600160401b038111156124a057600080fd5b6124ac8682850161233e565b608083015250949350505050565b81810381811115610e5157610e51612161565b6000826124dc576124dc612262565b500490565b8082028115828204841417610e5157610e51612161565b60ff818116838216029081169081811461158057611580612161565b60ff8181168382160190811115610e5157610e51612161565b805160208201516bffffffffffffffffffffffff198116919060148210156102a2576bffffffffffffffffffffffff1960149290920360031b82901b161692915050565b60008161258057612580612161565b506000190190565b61ffff8281168282160390811115610e5157610e51612161565b63ffffffff818116838216029081169081811461158057611580612161565b60ff8281168282160390811115610e5157610e51612161565b61ffff818116838216029081169081811461158057611580612161565b600061ffff83168061260b5761260b612262565b8061ffff8416069150509291505056fe4e616d652069732073746f72656420636f6e666964656e7469616c6c7920616e64206f6e6c792061636365737369626c6520746f20746865206f776e6572a264697066735822122000bb48a153a593dd70c8871dfbf0316f1294f5df194c6ca4a76b90270b0612ce64736f6c634300081c0033",
  "linkReferences": {},
  "deployedLinkReferences": {}
}